:020000040800F2
:1000000020050020A9010008BB1A0008E31500081C
:10001000B91A0008E10200081521000800000000DC
:10002000000000000000000000000000D71D0008D4
:10003000E302000800000000BD1A0008D91D0008F6
:10004000C3010008C3010008C3010008C301000880
:10005000C3010008C3010008C3010008C301000870
:10006000C3010008C3010008C3010008C301000860
:10007000C3010008C3010008C3010008C301000850
:10008000C3010008C3010008C3010008000000000C
:10009000000000000000000000000000C301000894
:1000A000811E0008C3010008C3010008C301000845
:1000B000C3010008C3010008C3010008C301000810
:1000C000C3010008C3010008C3010008C301000800
:1000D000C3010008C3010008C301000800000000BC
:1000E000C3010008C3010008C301000800000000AC
:1000F000000000000000000000000000C301000834
:1001000000000000C3010008C3010008C30100088B
:1001100000000000000000000000000000000000DF
:10012000C3010008C3010008C3010008C30100089F
:10013000C3010008000000000000000000000000F3
:10014000000000000000000000000000C3010008E3
:10015000C3010008C3010008C3010008C30100086F
:10016000C3010008C30100080000000000000000F7
:10017000000000000000000000000000000000007F
:1001800000000000C30100080000000000000000A3
:10019000C3010008DFF80CD000F090F800480047D9
:1001A000E522000820050020064880470648004751
:1001B000FEE7FEE7FEE7FEE7FEE7FEE7FEE7FEE717
:1001C000FEE7FEE7711E0008950100082DE9F05FCB
:1001D0000546002092469B468846064681464024B6
:1001E0001BE0284641464746224600F057F8534652
:1001F0005A46C01A914110D311461846224600F0C3
:100200003EF82D1A67EB01084F46224601200021D7
:1002100000F035F817EB00094E41201EA4F101044F
:10022000DFDC484631462A464346BDE8F09FD2B25D
:1002300001E000F8012B491EFBD270470022F6E7CF
:1002400010B513460A4604461946FFF7F0FF20464C
:1002500010BD30B50B46014600202022012409E0E4
:1002600021FA02F59D4205D303FA02F5491B04FA6F
:1002700002F52844151EA2F10102F1DC30BD202A4E
:1002800004DB203A00FA02F1002070479140C2F1ED
:10029000200320FA03F3194390407047202A04DB1F
:1002A000203A21FA02F00021704721FA02F3D040EF
:1002B000C2F120029140084319467047064C074D91
:1002C00006E0E06840F0010394E807009847103426
:1002D000AC42F6D3FFF762FF7423000894230008B2
:1002E000FEE7704770B504464FF47A7502E0284681
:1002F00000F004F8641EFAD270BD000070B5084C1E
:100300000546002021684862204600F03FFF206833
:10031000416AA942FCD3BDE87040014800F068BFC3
:100320006800002072B6FEE770B5044600F0FEF8E3
:100330000546601C02D004480078044400F0F6F83A
:10034000401BA042FAD370BD000000202DE9F84FF9
:10035000DFF8B8A10022012403254FF00F090AF1AC
:10036000040BAAF1040E00BF0B6804FA02F6334036
:10037000B34273D10F7907F00307012F01D0022F89
:1003800016D187684FEA420805FA08FC27EA0C07ED
:10039000D1F80CC00CFA08FC4CEA070CC0F808C0F5
:1003A0004768B7430E79C6F3001696403E43466051
:1003B0000E79F643B6070DD0C768560005FA06FC5D
:1003C00027EA0C07D1F808C00CFA06FC4CEA070C27
:1003D000C0F80CC00E7906F00306022E10D1D60824
:1003E00000EB8608D8F8206057074FEAD76C09FA67
:1003F0000CF7BE430F6907FA0CF73743C8F82070B3
:1004000006684FEA420C05FA0CF7BE430F7907F075
:10041000030707FA0CF7374307604E6816F4403FAE
:100420006DD03B4E376847F480473760366822F01E
:10043000030706F480460096364E07EB060CDCF800
:10044000086897073F0F09FA07F826EA0806DFF859
:10045000C880404503D14FF000081EE04FE0DFF8B0
:10046000BC80404502D14FF0010816E0DFF8B080B3
:10047000404502D14FF002080FE0DFF8A880404568
:1004800002D14FF0030808E0DFF89C80404502D11C
:100490004FF0040801E04FF0070808FA07F848EAAF
:1004A0000608CCF80888DAF800605746D1F804C08E
:1004B0009E435FEACC2C00D51E433E60DBF8006013
:1004C0005F46D1F804C09E435FEA8C2C00D51E43E2
:1004D0003E60DEF800607746D1F804C09E435FEAD4
:1004E0008C3C00D51E433E60084F083F3E68D1F863
:1004F00004C09E435FEACC3C00D51E433E60521CC4
:10050000102AFFF431AFBDE8F88F0000083C01402D
:100510004438024000300140000002400004024024
:1005200000080240000C02400010024001488068B0
:10053000704700000000002070B5040025D094F83A
:100540003D00002520B984F83C50204600F04CFACC
:10055000242084F83D002068016821F00101016039
:100560002068016841F4004101602068016821F4BD
:100570000041016000F0A0FB4D4A6168914201D842
:100580004C4900E04C49884201D2012070BD4B49E2
:100590002368B0FBF1F15E6826F03F060E435E6013
:1005A0006368934206D94FF4967359434FF47A73B4
:1005B000B1FBF3F12368491C1E6A26F03F06314364
:1005C00019626168914210D84900401EB0FBF1F2F7
:1005D000521CC2F30B02042A01D2042022E0B0FB19
:1005E000F1F0401CC0F30B001CE0A268F2B301EB79
:1005F000C10303EB0116431EB3FBF6F35B1C43F48C
:1006000080431B0549D092B301EBC10202EB0111FB
:10061000401EB0FBF1F0401CC0F30B0040F48040E2
:1006200040F400402168CA694CF6FF739A431043B6
:10063000C861D4E9071001432068026822F0C002B3
:1006400011430160D4E9030101432068826848F244
:10065000FF339A4311438160D4E9050108432168BF
:10066000CA6822F0FF021043C86001E00EE016E005
:100670002068016841F0010101602564202084F8B0
:100680003D00256384F83E50002070BD01EB41061B
:10069000431EB3FBF6F35B1CB3E70120C2E701EB9B
:1006A0004101401EB0FBF1F0401CC0F30B00B7E766
:1006B000A086010080841E0000093D0040420F001A
:1006C0002DE9FF4F83B09A46DDE911979346044622
:1006D000DDF84080FFF72AFF054694F83D0020280A
:1006E00070D11923012271492046009501F08AF842
:1006F0000028F5D194F83C00012863D0012084F84B
:100700003C0020680168C90703D1016841F001017C
:1007100001602068016821F400610160222084F8F2
:100720003D00402084F83E0000262664C4F8248062
:10073000A4F82A90608D20855D48E062CDE90075BF
:1007400053465A462046049900F064FF00287CD1A5
:10075000208DD0B1012821D00228206824D0416901
:1007600080690090208D032869D801282BD0514939
:1007700002283B464FF00002009559D0884620469B
:1007800001F040F8002860D13CE0206841698169AF
:100790000091016841F40071016077E02068016810
:1007A00021F480610160F0E7016821F4806101605B
:1007B0002068016841F40061016020684169806936
:1007C000009063E06FE02A463946204601F099F830
:1007D00098BB20680069616A08704EE02068016873
:1007E00041F40071016020680069616A0870606A04
:1007F000401C6062218D491E2185618D491E6185E5
:10080000216838E02068016821F480610160206877
:100810000069616A0870606A401C6062208D401E39
:100820002085608D401E60853B4600224146009534
:10083000204600F0E7FF00B9D0E706E0FFE72A46D0
:100840003946204601F05DF818B1012007B0BDE837
:10085000F08F20680069616A0870606A401C6062FD
:10086000218D491E2185618D491E618521684A6956
:10087000D24352070AD409690170606A401C606261
:10088000208D401E2085608D401E6085208D0028B3
:100890007FF468AF202084F83D0084F83E6084F83F
:1008A0003C600020D2E70220D0E7000002001000E8
:1008B0000000FFFF040001002DE9FF4F83B09A46BE
:1008C000DDE9119793460446DDF84080FFF72EFEE0
:1008D000054694F83D0020287FD119230122404984
:1008E0002046009500F08EFF002876D194F83C0059
:1008F000012872D0012084F83C0020680168C907F3
:1009000003D1016841F0010101602068016821F410
:1009100000610160212084F83D00402084F83E0001
:1009200000262664C4F82480A4F82A90608D2085CF
:100930002C48E062CDE9007553465A46204604999A
:1009400000F0E6FE70B930E02A463946204601F054
:100950000BF858B1206C042804D12068016841F4D8
:1009600000710160012007B0BDE8F08F606A216866
:1009700000780861606A401C6062218D491E89B25E
:100980002185628D521E628522685369DB435B07B5
:100990000BD469B100781061606A401C6062208DE0
:1009A000401E2085608D401E6085208D0028CBD1A3
:1009B0002A463946204600F0FFFE0028CAD154F8E6
:1009C0003D0B016841F400710160202004F81E090C
:1009D000E67766770020C6E7FFE70220C3E700005E
:1009E000020010000000FFFF10B586B0044614217D
:1009F0006846FFF723FC13492068884220D112483B
:100A00000021026842F002020260006800F0020069
:100A10000590C02000901220CDE901010320039031
:100A20000420049069460948FFF790FC06481030FE
:100A3000016841F400110160006800F400100590A5
:100A400006B010BD0054004030380240000402409F
:100A500002488168027811448160704700000020DC
:100A60000B4810B5016841F400710160016841F460
:100A700080610160016841F480710160032000F031
:100A80006FF80F2000F006F800F024F8002010BDE9
:100A9000003C024070B50D4D04464FF47A71287841
:100AA000B1FBF0F00A490968B1FBF0F000F00CFB73
:100AB00048B9102C07D200222146501E00F030F811
:100AC00000206C6070BD012070BD0000000000209F
:100AD0000C0000200A4808B5016841F4804101601B
:100AE000006800F4804000900548001F016841F054
:100AF00080510160006800F08050009008BD000047
:100B000044380240002809DB00F01F020121914017
:100B10004009800000F1E020C0F80011704700009B
:100B2000F0B40E4B1B680C46C3F30223C3F1070558
:100B3000042D00D90425191D072901D2002300E046
:100B4000DB1E012606FA05F1491E214099409E4010
:100B5000761E16403143F0BC01F0EEBA0CED00E019
:100B6000064900F0070208684FF6FF03184040EA04
:100B70000220034A10430860704700000CED00E0BB
:100B80000000FA052DE9F0470E46050065D0DFF8B4
:100B90001481D8F80000F7B200F00700B04207D285
:100BA00088F80070D8F8000000F00700B04254D177
:100BB00028683D4C810712D5400703D5206840F4D2
:100BC000E05020602878000703D5206840F460409A
:100BD00020602068A96820F0F00008432060287891
:100BE000C0072DD0304968680839012812D0022882
:100BF00013D0032811D00968890700292DDA21684C
:100C000021F0030101432160FFF790FC814641F28E
:100C1000883A0EE009688903EFE709688901ECE783
:100C2000FFF784FCA0EB0901514502D90320BDE880
:100C3000F0872068696800F00C00B0EB810FEFD1FD
:100C4000D8F80010404601F00701B14207D90770FB
:100C5000006800F00700B04201D00120E7E72878E3
:100C6000400705D52068E96820F4E050084320607B
:100C70002878000706D52068296920F4604040EAFA
:100C8000C100206000F038F82168084AC1F3031160
:100C9000515CC8400649086006480068FFF7FAFE44
:100CA0000020C4E7003C0240083802405C230008F2
:100CB0000C00002004000020044805490068096871
:100CC000044AC1F38221515CC84070470C000020E7
:100CD000083802406C230008044805490068096888
:100CE000044AC1F34231515CC84070470C000020F7
:100CF000083802406C230008154810B5006810F051
:100D00000C02144813D01449042A0FD0082A0ED11B
:100D10000F4C241F2268236802F03F025B0207D5B4
:100D20002068C0F38810A0FB010106E0084610BD52
:100D30002168C1F38811A1FB00010023FFF746FAE7
:100D40002168C1F30141491C4900B0FBF1F010BD1D
:100D5000083802400024F40040787D012DE9F84F66
:100D600004006ED02078DFF84C93C007A9F1040589
:100D70004AD009F104000168C1F38101012908D0BA
:100D80000068C0F3810002280AD1D9F800004002AF
:100D900006D52868800337D560680028E1D033E0A5
:100DA0006068B0F5803F10D0B0F5A02F286810D053
:100DB00020F480302860286820F480202860606853
:100DC000A8B1FFF7B3FB06460DE0286840F4803079
:100DD000F4E740F480202860F7E700BFFFF7A6FBA8
:100DE000801B642873D828688003F7D50CE0FFF7D0
:100DF0009DFB064605E000BFFFF798FB801B6428BB
:100E0000F0D828688003F7D42078DFF8AC82800718
:100E10004FF0000A3ED5A748001D016811F00C0FE5
:100E200008D00068C0F3810002280BD1D9F8000077
:100E3000400207D42868800716D5E068012800D151
:100E400012E033E1E068B8B10120C8F80000FFF714
:100E50006DFB064605E000BFFFF768FB801B02281C
:100E6000C0D828688007F7D52868216920F0F800E5
:100E700040EAC10028600DE0C8F800A0FFF756FB6B
:100E8000064604E0FFF752FB801B02281FD82868A3
:100E90008007F7D42078000722D5864F87486169FC
:100EA000703771B101210160FFF740FB064604E095
:100EB000FFF73CFB801B022809D838688007F7D56C
:100EC0000EE0C0F800A0FFF731FB064605E082E027
:100ED000FFF72CFB801B02287DD838688007F7D4E9
:100EE0002078400768D5DFF8CCB100270BF13C0B28
:100EF000DBF80000C0000BD4DBF8001041F080519B
:100F0000CBF80010DBF80000012700F080500090C3
:100F10006B4E3068C00510D4306840F4807030608B
:100F2000FFF704FB009005E0FFF700FB0099401A73
:100F3000022850D83068C005F6D55E4EA0686C36E1
:100F400001280FD00528306810D020F00100306053
:100F5000306820F004003060A068B8B1FFF7E6FA0E
:100F600000900FE0306840F00100F4E740F004002A
:100F70003060F7E7FFF7DAFA0099411A41F288305A
:100F8000814266D830688007F4D50EE0FFF7CEFACC
:100F9000009007E0FFF7CAFA0099411A41F2883041
:100FA000814256D830688007F4D42FB1DBF80010A6
:100FB00021F08051CBF80010A069C8B33D49091D4C
:100FC0000968C1F3810102294AD00228504607D09E
:100FD000C8F8600000E03CE0FFF7A8FA04463BE0F8
:100FE0004746C8F86000FFF7A1FA064605E000BFD3
:100FF000FFF79CFA801B02282BD828688001F7D4C1
:10100000D4E907010843A16A2E4A490802EB0141CD
:10101000626A41EA8211084394F82C1040EA0161A7
:10102000C9F8001001203866FFF780FA044606E090
:101030003EE000BFFFF77AFA001B022809D82868B3
:101040008001F7D534E000BFFFF770FA001B0228DB
:1010500002D90320BDE8F88F28688001F4D427E086
:101060000128F7D0D9F80000E26900F4800191422C
:101070001CD1226A00F03F01914217D147F6C0719E
:10108000626A0140B1EB821F10D1A26A4FF0FF33B8
:1010900000F4403103EB5202B1EB024F06D194F859
:1010A0002C1000F07060B0EB016F01D00120D1E78F
:1010B0000020CFE70438024000004742800E47423C
:1010C000007000400000FFFF10B5401EB0F1807FAF
:1010D00001D3012010BD4FF0E02460610F216017A3
:1010E00001F02AF80020A06107202061002010BD37
:1010F0007047704710B5040003D094F83D0010B15C
:1011000007E0012010BD002084F83C00204600F0DC
:101110001FF8022084F83D00211D206800F0B6FE73
:10112000012084F8460084F83E0084F83F0084F8EB
:10113000400084F8410084F8420084F8430084F8B9
:10114000440084F8450084F83D00002010BD0000F4
:1011500008B500680B49884212D10B48016841F478
:10116000803101600068002200F480300090114658
:101170001820FFF7D5FCBDE808401820FFF7C2BCD7
:1011800008BD0000004001404438024090F83D1086
:10119000012901D001207047022180F83D1000682C
:1011A0000E4988420ED0B0F1804F0BD00C498842D6
:1011B00008D00C49884205D00B49884202D00B491F
:1011C000884204D1816801F00701062903D0016833
:1011D00041F0010101600020704700000000014063
:1011E0000004004000080040000C004000400140A6
:1011F00001680A6A41F211131A4207D10A6A9B1068
:101200001A4203D10A6822F001020A60012180F823
:101210003D100020704770B5044690F83C00002552
:10122000012817D0012684F83C60022084F83D0094
:101230002068826822F0770222F47F428260086888
:10124000502838D00DDC20284FD005DC90B3102872
:1012500011D14AE0022070BD302846D040280AD182
:101260003BE060282FD070280DD0B0F5805F03D010
:10127000B0F5005F12D0012584F83D60002084F8AD
:101280003C00284670BDCB68D1E90121206800F000
:1012900049FE2068816841F0770109E0CB68D1E917
:1012A0000121206800F03EFE2068816841F4804101
:1012B0008160E1E719E0CA684968206800F044FEEF
:1012C0005021206806E0CA684968206800F04DFE99
:1012D0006021206800F030FECEE7CA6849682068C7
:1012E00000F032FE40212068F4E7226801461046F3
:1012F000F0E7704770B50446006801694FF00005DB
:10130000C943890715D4C168C943890711D4E91EA7
:10131000016101202077206880698007204602D083
:10132000FFF7E7FF04E000F098F8204600F096F899
:10133000257720680169C943490717D4C168C943A3
:10134000490713D46FF0040101610220207720685F
:10135000806910F4407F204602D0FFF7CAFF04E006
:1013600000F07BF8204600F079F8257720680169C5
:10137000C943090716D4C168C943090712D46FF0DD
:1013800008010161042020772068C0698007204699
:1013900002D0FFF7AEFF04E000F05FF8204600F057
:1013A0005DF8257720680169C943C90617D4C1686B
:1013B000C943C90613D46FF01001016108202077DA
:1013C0002068C06910F4407F204602D0FFF791FFEB
:1013D00004E000F042F8204600F040F8257720684D
:1013E0000169C943C90708D1C168C943C90704D104
:1013F000891E0161204600F032F820680169C94366
:10140000090609D4C168C943090605D46FF08001F3
:1014100001612046FFF76CFE20680169C943490657
:1014200009D4C168C943490605D46FF04001016180
:10143000204600F015F820680169C94389060BD4DD
:10144000C168C943890607D46FF0200101612046B5
:10145000BDE87040FFF74DBE70BD704770477047E4
:10146000704770B5040004D094F83D00002510B119
:1014700006E0012070BD84F83C50204600F022F8C0
:10148000242084F83D002068C16821F40051C16027
:10149000204600F07DFD2068016921F49041016142
:1014A0002068416921F02A0141612068C16841F446
:1014B0000051C1602564202084F83D0084F83E007E
:1014C000002070BD10B586B0044614216846FEF7B2
:1014D000B5FE14492068884221D1134800210268D2
:1014E00042F010020260006800F0100005900E4803
:1014F0001438026842F001020260006800F0010046
:1015000005904FF4C06000900220CDE90101032056
:1015100003900720049069460448FEF717FF06B0C1
:1015200010BD00000010014044380240000002409D
:101530002DE9F843044690F83D001F4616460D4637
:1015400020284CD1C5B1BEB194F83C00012846D04A
:10155000012084F83C004FF00008C4F840802120AE
:1015600084F83D00FEF7E2FFA6848146E684A06889
:10157000B0F5805F03D004E00120BDE8F883206966
:1015800028B12E465FF0000584F83C800EE000266E
:10159000FAE78021204600F081FDA0B9AEB116F82F
:1015A000010B21684860E08C401EE084E08C4B46D3
:1015B0004FF0000200970028EBD14FF04001204689
:1015C00000F06CFD30B10320D7E735F8020BC0F313
:1015D0000800E6E7202084F83D000020CDE7022047
:1015E000CBE7FEE701684A69D24352050FD46FF496
:1015F00080624A61002140F8301F202242738173CB
:10160000026942F004020261017301207047002068
:10161000704700002DE9F84F0446006889460B9D8D
:1016200001689846174641F48061016020680168AE
:1016300041F48071016000954FF0011B0022594672
:1016400020460A9B00F0DEF84FF4007A40B1206893
:101650000068C00501D5C4F840A00320BDE8F88F9C
:10166000216809F0FE0008612B46284920460A9AA5
:1016700000F0FCF8F0BB20684169806900902A46C0
:1016800020460A9900F070F940B1206C04283AD144
:101690002068016841F40071016034E0FEB2B8F1E5
:1016A000010F09D02168380A08612A4620460A99A4
:1016B00000F05AF90028E8D1206806612A46204641
:1016C0000A9900F051F90028DFD12068016841F43F
:1016D0008071016000950022594620460A9B00F067
:1016E00091F80028B3D1216809F0FF0040F0010013
:1016F000086100E007E02B46044920460A9A00F002
:10170000B5F80028AAD00120A8E7000002000100D7
:101710002DE9F843044600680D46DDE908970168A5
:101720009846164641F4807101604B4600224FF006
:1017300001112046009700F065F848B12068006864
:10174000C00502D54FF4007020640320BDE8F88383
:10175000216805F0FE0008613B464A4615492046CF
:1017600000F084F888B920684169806900903A46A1
:101770004946204600F0F8F848B1206C042804D10E
:101780002068016841F4007101600120DEE7F5B2D4
:10179000B8F1010F09D02168300A08613A4649467C
:1017A000204600F0E1F80028E7D12068056100201C
:1017B000CCE700000200010070B516460D46044655
:1017C0000DE02046FFF70EFF08B1012070BD681C38
:1017D00005D0FEF7ABFE801BA84207D835B12068C4
:1017E0004069C0434007ECD4002070BD002044F89D
:1017F000300F20216173A073216941F02001216124
:101800002073E2E72DE9F0471E4690460D46044658
:10181000C1F30747DDF8209008E0701C06D0FEF702
:1018200085FEA0EB0900B0420FD876B12068012FE9
:1018300018D0806925EA00000004000C14D00021B3
:101840004145EAD00020BDE8F087002044F8300F81
:1018500020216173A073216941F02001216120736F
:101860000120F0E74069E5E70121E9E72DE9F047CC
:101870009A4691460E46044600254FF02008C1F3D3
:10188000074725E020684069C043400514D420681C
:10189000016841F40071016021686FF48060486163
:1018A000256384F83D8084F83E50206C40F00400AD
:1018B000206484F83C501FE0B9F1FF3F08D0FEF7E8
:1018C00035FEA0EB0A0149450CD8B9F1000F09D04B
:1018D0002068012F13D0806926EA00000004000C64
:1018E0000BD0CFE744F8305F84F80D80A5732069F2
:1018F00040F02000206125730120BDE8F087406999
:10190000EAE72DE9F041002590460E4604462027DF
:1019100017E04069C043C0060CD454F8301B6FF088
:101920001000486144F810596777A577206A206253
:10193000257717E0FEF7FAFDA0EB0800B04208D8C3
:101940003EB120684169C9434906E2D40020BDE8A0
:10195000F08144F8305F6773A573206940F0200080
:10196000206125730120F2E770B516460D46044646
:101970000DE02046FFF736FE08B1012070BD681C5F
:1019800005D0FEF7D3FD801BA84207D835B12068EB
:101990004069C0430006ECD4002070BD002044F82C
:1019A000300F20216173A073216941F02001216172
:1019B0002073E2E70D4808B5016841F0800101603D
:1019C000016801F080010091016841F001010160AE
:1019D000016801F001010091016841F0020101601C
:1019E000006800F00200009008BD0000303802409E
:1019F0000D4810B50B4901600C49416000214FF4BE
:101A000080428160C0E9031241618161C16101626C
:101A1000FEF792FD002803D0BDE81040FEF782BC1F
:101A200010BD00000054004014000020A0860100FA
:101A30001FB5002111480091019102910E4A0391B6
:101A400002605322C0E901214FF6FF72C0E9032171
:101A500080218161FFF74EFB08B1FEF763FC4FF474
:101A60008050009069460548FFF7D5FB002801D05B
:101A7000FEF758FC1FBD0000004001406800002038
:101A80000C4810B50A4901604FF4E1314160002172
:101A900081600C22C160C0E904128161C161FFF75D
:101AA000E0FC002803D0BDE81040FEF73BBC10BDB1
:101AB00000100140B0000020FEE7FEE7704770B55F
:101AC0000646032000F098F8C0F3810042F630216A
:101AD00040B141F6B055012807D0022809D00328AB
:101AE0000AD02FE042F2FC1404E02C4642F28C357E
:101AF0000DE02C460D460AE0072000F07DF8400A74
:101B0000C00702D041F6641401E041F2883403209A
:101B100000F072F810F0030006D0012806D0022869
:101B200006D0032806D00DE00A2004E0052002E0DC
:101B3000142000E0502006FB004080B2A84201D8EB
:101B4000A04200D2002070BD70B50646032000F010
:101B500053F8C0F3810042F6302140B141F6B05550
:101B6000012807D0022809D003280AD02CE042F22D
:101B7000FC1404E02C4642F28C350DE02C460D4658
:101B80000AE0072000F038F8400AC00702D041F60A
:101B9000641401E041F28834032000F02DF810F0C5
:101BA000030006D0012806D0022806D0032806D05C
:101BB0000AE00A2004E0052002E0142000E02820CA
:101BC000A64201D3AE4201D9002070BD311B91FB6A
:101BD000F0F080B270BD10B50B2000F00DF8C0F32E
:101BE000002010BD10B50A2000F006F8BDE8104036
:101BF000C0F30900FFF763BF1FB5002103914FF643
:101C0000FF73022203A98DE80E0002460123222160
:101C10000348FEF755FDBDF80C0004B040BA10BDF6
:101C20001400002070B500250320FFF7E5FFC0F386
:101C3000810042F6302148B141F6B054012808D065
:101C400002280AD003280BD0002070BD42F2FC10FD
:101C500004E0204642F28C340DE020460C460AE0B7
:101C60000720FFF7C9FF400AC00702D041F6641001
:101C700001E041F2883000F043F86420FEF754FBA5
:101C80000E4E0AE000F01CF80A20FEF74DFBFFF7AD
:101C9000A9FF26F815006D1CADB2FFF7A3FFA04207
:101CA000F0D16420FEF740FBFFF795FF20B900203C
:101CB0006D1EADB226F81500284670BDF400002058
:101CC00010B50320FFF798FF20F01001032000F06B
:101CD0003FF80220FFF790FF40F46071022000F00F
:101CE00037F802E00120FEF71FFB0A20FFF784FF10
:101CF0004004F7D5FFF776FFBDE81040AFF3008052
:101D000010B5FFF721FF04460320FFF775FF00F031
:101D10003F01C4F3090041EA801040F0100421465D
:101D2000032000F015F82146BDE81040032000F024
:101D30000FB810B504460520FFF75EFF04F00F0151
:101D400020F00F000143BDE810400520AFF30080F4
:101D50001FB5002203920A0A8DF80C208DF80D1091
:101D60004FF6FF73022203A98DE80E0002460123FD
:101D700022210248FEF7A0FD1FBD00001400002034
:101D800010B502210846FFF7E3FF3220FEF7CCFA38
:101D90004CF201010220FFF7DBFF4FF41670FEF753
:101DA000C3FA18210320FFF7D3FF4FF4806104200A
:101DB000FFF7CEFF48F2AD610520FFF7C9FF4FF4F2
:101DC00000410620FFF7C4FFBDE8104045F61A7138
:101DD0000720FFF7BDBF7047FEF73ABE30B593B09E
:101DE00030216846FEF72AFA14210CA8FEF726FADD
:101DF0001D480025016841F080510160006800F035
:101E0000805011901948016821F4404141F400418B
:101E100001600068022400F440401190012000900D
:101E2000000401908001CDE9064019200890A82007
:101E3000CDE9090404200B906846FEF78FFF08B136
:101E400072B6FEE70CA90F2081E831004FF48050F4
:101E5000CDE90F0502210CA8FEF794FE002801D061
:101E600072B6FEE713B030BD40380240007000404B
:101E70000248016841F470010160704788ED00E09C
:101E80000148FFF737BA000068000020F0B502688B
:101E90001D4B1E4C9F031E4D1E4E984207D0B8424C
:101EA00005D0A04203D0A84201D0B04204D122F014
:101EB000700C4A6842EA0C02984210D0B8420ED028
:101EC000A0420CD0A8420AD0B04208D0124CA04286
:101ED00005D0124CA04202D0114CA04203D122F4F2
:101EE0004074CA6822434C6922F080022243026097
:101EF0008A68C2620A688262984201D109690163F4
:101F000001214161F0BD00000000014000040040DB
:101F100000080040000C0040004001400044014027
:101F20000048014010B5846842EA032224F47F444B
:101F30000A432243826010BD826822F070020A4385
:101F400042F007018160704710B5036A046A24F00B
:101F500001040462846924F0F00444EA021423F0CA
:101F60000A020A438461026210BD10B5036A23F0BD
:101F7000100303628369046A23F4704343EA023264
:101F800024F0A00343EA01118261016210BD000048
:101F900070B5044600680169E26821F440511143BC
:101FA00001612169A068E26908436169114308433E
:101FB0002168CA6849F20C639A430243CA602068E8
:101FC0004169A26921F4407111434161314920689E
:101FD000884202D03049884202D1FEF77DFE01E0FE
:101FE000FEF76AFEE2690023192164253226B2F564
:101FF000004F626828D0A0FB0101930F9200FEF70A
:10200000E5F80146B0FBF5F06FF01802504301EB24
:10201000800006EB0010B0FBF5F000F0F002B1FB21
:10202000F5F002EB0012B1FBF5F06FF01803584326
:1020300001EB800006EB0010B0FBF5F000F00F00A4
:1020400021681044886070BDA0FB010192185B41BB
:10205000FEF7BCF80146B0FBF5F00201B1FBF5F06C
:102060006FF01803584301EB800006EBC000B0FB93
:10207000F5F000F0F80002EB4002B1FBF5F0584338
:1020800001EB800006EBC000B0FBF5F000F00700AC
:10209000D6E7000000100140001401402DE9F04196
:1020A000984617460E460446069D27E0681C25D034
:1020B0002DB1FEF73BFAA0EB0800A8421ED920681C
:1020C0000C3050E8001F21F4D07140E80012002AC3
:1020D000F5D12068143050E8001F21F0010140E8DC
:1020E0000012002AF5D1202084F83D0084F83E003B
:1020F000002084F83C000320BDE8F08120680068DF
:1021000036EA000004D00020B842CFD00020F3E728
:102110000120F9E7FEE700000FB4054B10B503A955
:10212000044A029800F028F810BC5DF814FB000087
:10213000CD220008100000200907090E002804DB4A
:1021400000F1E02080F80014704700F00F0000F16B
:10215000E02080F8141D704702E008C8121F08C173
:10216000002AFAD170477047002001E001C1121F18
:10217000002AFBD1704700002DE9FF4F89B09B4634
:102180000446002506E025280BD05A460B999047B7
:10219000641C6D1C20780028F5D10DB02846BDE8E0
:1021A000F08F0027B8460122474900E0074314F8A2
:1021B000013F203B02FA03F00842F7D120782E2895
:1021C00019D114F8010F47F004072A280ED06FF038
:1021D0002F022078A0F1300109290CD808EB8801E2
:1021E00002EB410100EB0108641CF2E70A98641C51
:1021F00050F8048B0A9020780028CED0642808D0AC
:10220000692806D075281ED05A460B9990476D1C38
:1022100058E00A994FF00A0901C90A91002802DA28
:1022200040422D2102E0390504D52B218DF82010E4
:10223000012103E0F90704D02021F7E78A4608AE20
:102240000DE00021FAE70A994FF00A0901C90A9145
:10225000F7E74946FDF7FDFF303106F8011D00287C
:10226000F7D1ADEB060000F12009780701D44FF05B
:102270000108C84502DDA8EB090000E00020804607
:10228000002706E008A85A46C05D0B9990476D1CD0
:102290007F1C5745F6DB04E030205A460B999047E7
:1022A0006D1CB8F10001A8F10108F5DC05E016F895
:1022B000010B5A460B9990476D1CB9F10001A9F129
:1022C0000109F4DC641C65E70928010013B54FF629
:1022D000FF73012269460248FFF72AF900981CBDE6
:1022E000B0000020FEF7BCFBFFF778FDFFF762FBB4
:1022F000FFF7C6FBFFF79CFBFFF77AFBFFF740FDFC
:102300004FF4FA70FDF7EEFF0A20FFF712FDFFF71A
:1023100089FC42F6AE10FFF7F3FC0C4D4FF4FA6661
:102320005FF00004214635F8142009A0FFF7F4FE01
:10233000641C142CF6DBFFF74EFC014606A0FFF7E9
:10234000EBFE3046FDF7F0FFEAE70000F400002066
:1023500025643D25640D0A0025640000000000008E
:102360000000000001020304060708090000000045
:102370000102030494230008000000201400000060
:1023800058210008A8230008140000200C050000B4
:10239000682100080100000010000000000000009B
:0823A0000024F400000000001D
:040000050800019559
:00000001FF
